{
  "contractName": "DappToken",
  "abi": [
    {
      "inputs": [],
      "payable": false,
      "stateMutability": "nonpayable",
      "type": "constructor"
    },
    {
      "constant": true,
      "inputs": [],
      "name": "totalSupply",
      "outputs": [
        {
          "internalType": "uint256",
          "name": "",
          "type": "uint256"
        }
      ],
      "payable": false,
      "stateMutability": "view",
      "type": "function"
    }
  ],
  "bytecode": "0x6080604052348015600f57600080fd5b50620f42406000819055506084806100286000396000f3fe6080604052348015600f57600080fd5b506004361060285760003560e01c806318160ddd14602d575b600080fd5b60336049565b6040518082815260200191505060405180910390f35b6000548156fea265627a7a723158200cbfc1b17e9110cd9f6c19ff48b3d884047bfb9de0b1af5df89dd6feffa549ce64736f6c63430005100032",
  "source": "pragma solidity ^0.5.16;\r\n\r\ncontract DappToken {\r\n    uint256 public totalSupply;\r\n\r\n    // Constructor\r\n    constructor() public {\r\n        totalSupply = 1000000;\r\n    }\r\n\r\n    // Set the total number of tokens\r\n    // Read total Number of tokens\r\n}\r\n",
  "sourcePath": "C:\\Users\\ARYAN\\Desktop\\Blockchain Development\\token_sale\\contracts\\DappToken.sol",
  "compiler": {
    "name": "solc",
    "version": "0.5.16+commit.9c3226ce.Emscripten.clang"
  },
  "schemaVersion": "3.4.4",
  "updatedAt": "2022-01-06T06:08:57.723Z",
  "networkType": "ethereum",
  "devdoc": {
    "methods": {}
  },
  "userdoc": {
    "methods": {}
  }
}